:020000040800F2
:10000000F004002001010008F1090008850600083D
:10001000B908000875010008BF1A000800000000B8
:1000200000000000000000000000000003170008AE
:100030000104000800000000790A000815180008F3
:100040001B0100081B0100081B0100081B01000820
:100050001B0100081B0100081B0100081B01000810
:100060001B0100081B0100081B0100081B01000800
:100070001B0100081B0100081B0100081B010008F0
:100080001B0100081B0100081B0100081B010008E0
:100090001B0100081B0100081B01000805040008E3
:1000A0001B0100081B0100081B0100081B010008C0
:1000B0001B0100081B0100081B0100081B010008B0
:1000C0001B0100081B0100081B0100081B010008A0
:1000D0001B010008B51800081B0100081B010008DF
:1000E0001B0100081B0100081B010008DFF80CD0F1
:1000F00000F02EF800480047891C0008F00400209A
:100100000648804706480047FEE7FEE7FEE7FEE7B1
:10011000FEE7FEE7FEE7FEE7FEE7FEE7551800080C
:10012000ED00000830B50B460146002020220124D6
:1001300009E021FA02F59D4205D303FA02F5491BB5
:1001400004FA02F52844151EA2F10102F1DC30BDCB
:10015000064C074D06E0E06840F0010394E8070014
:1001600098471034AC42F6D3FFF7C4FF94FB010864
:10017000B4FB010800BFFEE70020034908700349F3
:100180000880034908807047180000201A000020EA
:100190001C0000201FB50121042000F06FFC01218C
:1001A000082000F06BFC0121084600F067FC1020DD
:1001B0008DF803000120ADF8000003208DF8020047
:1001C00069461A4800F0C8F948208DF8030020203D
:1001D000ADF800006946164800F0BEF9052101207F
:1001E00000F09AF917208DF80C0003208DF80D000F
:1001F0008DF80E0001208DF80F0003A800F0FAFB27
:100200002020019000208DF808000C208DF80900B6
:1002100001208DF80A0001A800F034F9202000F038
:1002200017F90120034908601FBD000000080140C4
:10023000000C0140800121421CB50020019000907B
:1002400000F060FBFFF7A6FF00F03CF801A9A72033
:1002500000F020F86946A92000F01CF89DF8041071
:1002600005A001F02FFC9DF8001006A001F02AFC6B
:1002700000F028F81CBD00004368697049443A2525
:10028000640A0000467756657273696F6E3A25649A
:100290000A00000070B505460C4600F0A9FA2A20B5
:1002A00000F092FA284600F08FFA00F0A1FA2B2015
:1002B00000F08AFA002000F04FFA207000F0B6FA41
:1002C00070BD000010B50020064908600A2000F04B
:1002D0004BF801200449C1F88001322000F044F8B5
:1002E00010BD000080012142000021427CB50024A5
:1002F000002569460120FFF7CDFF0DF10101032024
:10030000FFF7C8FF0DF102010420FFF7C3FF0DF155
:1003100003010520FFF7BEFF01A90620FFF7BAFF82
:100320009DF800000D4908709DF802009DF801102D
:1003300001F00F0140EA01249DF804009DF803102C
:1003400001F00F0140EA0125F02C06DAB5F58C7FAB
:1003500003DA03480480034805807CBD18000020B0
:100360001A0000201C0000200146114A12884A434E
:100370004FF0E0235A6100229A611A46126942F056
:1003800001021A6100BF4FF0E022106900F0010283
:100390001AB100F48032002AF5D04FF0E022126941
:1003A00022F001024FF0E0231A6100229A617047A7
:1003B000160000200146114A12784A434FF0E0230C
:1003C0005A6100229A611A46126942F001021A61CA
:1003D00000BF4FF0E022106900F001021AB100F4F2
:1003E0008032002AF5D04FF0E022126922F001029B
:1003F0004FF0E0231A6100229A6170471400002038
:100400007047000010B5202000F028F801280AD11C
:10041000FFF76CFF06480388064802880648017803
:1004200006A001F04FFB202000F012F810BD0000E4
:100430001C0000201A000020180000205374613AAC
:1004400025642C583A25642C593A2564090A000081
:100450000149086070470000140401400146002073
:100460000022074B1B6803EA0102054B14331B688B
:100470000B4013B10AB1012000E0002070470000DA
:1004800000040140002123498279002A3AD00A461B
:10049000126803689A430B461A600A1D12680368C3
:1004A0009A430B1D1A60027911440A6803681A43C3
:1004B0000A60184A0832126803689A43154B0833D9
:1004C0001A601A1D126803689A43124B0C331A60A3
:1004D0004279102A0ED11A1F126803681A430D4B75
:1004E00008331A601A1D126803681A43094B0C334B
:1004F0001A600DE00749427911440A6803681A43FB
:100500000A6005E0027911440A6803689A430A60A8
:10051000704700000004014030B500228B071C0F1B
:100520000F2303FA04F20B4B8C1053F8243093433F
:10053000084C8D1044F8253023468C1053F8243095
:100540008C07240F00FA04F42343024C8D1044F866
:10055000253030BD080001402DE9F041024600255C
:100560000026002000230024002791F803C00CF08F
:100570000F0591F803C00CF0100CBCF1000F03D074
:1005800091F802C04CEA050591F800C0BCF1000FDB
:1005900031D0146800202BE04FF0010C0CFA00F36E
:1005A000B1F800C00CEA03069E4220D183004FF050
:1005B0000F0C0CFA03F7BC4305FA03FC4CEA0404E5
:1005C00091F803C0BCF1280F06D14FF0010C0CFAD2
:1005D00000FCC2F814C00AE091F803C0BCF1480F57
:1005E00005D14FF0010C0CFA00FCC2F810C0401C01
:1005F0000828D1D31460B1F800C0BCF1FF0F34DD7E
:10060000546800202EE000F1080C4FF0010808FAB1
:100610000CF3B1F800C00CEA03069E4221D183001E
:100620004FF00F0C0CFA03F7BC4305FA03FC4CEA3D
:10063000040491F803C0BCF1280F05D100F1080CA7
:1006400008FA0CF8C2F8148091F803C0BCF1480F06
:1006500007D100F1080C4FF0010808FA0CF8C2F8B5
:100660001080401C0828CED35460BDE8F0810246BB
:10067000002093680B400BB1012000E00020704780
:100680000161704700BFFEE710B500F029F90020B6
:10069000094908600949C1F8A8010520FFF78AFE49
:1006A0000120054908600520FFF784FE002003496A
:1006B000C1F8AC0110BD0000AC8121420080214294
:1006C00010B500200949086001200949C1F8A801B6
:1006D0000520FFF76FFE0120044908600520FFF7A1
:1006E00069FE00200249C1F8AC0110BDAC81214275
:1006F0000080214210B50020094908600949C1F86D
:10070000A8010520FFF756FE0120054908600520D5
:10071000FFF750FE00200349C1F8AC0110BD0000F6
:10072000AC8121420080214210B500F0D9F80020B0
:100730000749086001200749C1F8A8010520FFF713
:1007400039FE0120024908600520FFF733FE10BD85
:10075000AC8121420080214270B50546002600F0A0
:10076000ADF80120154908600520FFF723FE80241D
:1007700018E04FF480611248FFF779FF012800D19B
:1007800026430520FFF716FE00200C4908600520CF
:10079000FFF710FE01200B49C1F8AC010520FFF75F
:1007A00009FE6410002CE4D1012D02D1FFF76CFF8B
:1007B00001E0FFF7B9FF304670BD0000AC81214277
:1007C000000C01400080214270B5054600F088F819
:1007D000802408E005EA040010B1FFF771FF01E092
:1007E000FFF788FF6410002CF4D100F03BF870BDD7
:1007F00010B500F075F800200A49086001200A4988
:10080000C1F8A801074908600520FFF7D3FD0020C3
:100810000549C1F8A8010520FFF7CCFD00200149DA
:10082000086010BDAC8121420080214210B500F06B
:1008300057F80020094908600949C1F8A8010120BA
:10084000064908600520FFF7B5FD01200449C1F8FD
:10085000A8010520FFF7AEFD10BD0000AC812142CC
:100860000080214210B500F03BF801200F490860DC
:1008700000F024F801200E49C1F8AC010520FFF773
:1008800099FD07E0601CC4B2C82C03DDFFF7CEFF62
:10089000002010BD4FF480610648FFF7E8FE0028F5
:1008A000F0D10249091D08600120F2E7A881214228
:1008B00000802142000C014000BFFEE708B548203F
:1008C0008DF803004FF48060ADF8000003208DF830
:1008D000020069460148FFF73FFE08BD000C0140D9
:1008E00008B510208DF803008001ADF8000003204A
:1008F0008DF8020069460248FFF72EFE08BD000091
:10090000000C014008B510208DF80300C001ADF8BF
:10091000000003208DF802000121082000F0AEF84D
:1009200069460548FFF718FE01200449086004499C
:10093000C1F8A80108BD0000000C0140AC812142B3
:100940000080214210B586B004460121042000F049
:1009500095F80121880300F091F84FF40070ADF88C
:10096000140003208DF8160018208DF8170005A933
:100970001D48FFF7F1FD4FF48060ADF8140004202E
:100980008DF8170005A91848FFF7E6FD019400202F
:10099000ADF80800ADF80A00ADF80C00ADF8100095
:1009A0000C20ADF80E0001A9104801F013F8012148
:1009B0000E4800F0CCFF40210C4800F0BFFF202182
:1009C0000A4800F0BBFF25208DF8000002208DF8BA
:1009D000010003208DF8020001208DF80300684615
:1009E00000F008F806B010BD0008014000380140D2
:1009F0007047000070B5002100230F22C47804B3B3
:100A0000154C246804F4E064C4F5E064210AC1F1E3
:100A10000403CA40447804FA03F184781440214363
:100A200009010E4C0678A155047804F01F05012435
:100A3000AC4005786D11AD0005F1E025C5F8004129
:100A400009E0047804F01F050124AC40044D067849
:100A5000761145F8264070BD0CED00E000E400E0A2
:100A600080E100E002490143024A11607047000042
:100A70000000FA050CED00E07047000029B1064ABD
:100A800092690243044B9A6104E0034A92698243EB
:100A9000014B9A61704700000010024030B5002100
:100AA0000022002400232D4D6D6805F00C0121B1BA
:100AB000042905D0082923D105E0294D056022E04D
:100AC000274D05601FE0254D6D6805F47012234D1C
:100AD0006D6805F48034022505EB92421CB9214D66
:100AE000554305600BE01D4D6D6805F400351DB1E3
:100AF0001C4D5543056002E0194D5543056002E069
:100B0000174D056000BF00BF144D6D6805F0F00182
:100B10000909154D6B5C0568DD4045600F4D6D683A
:100B200005F4E061090A104D6B5C4568DD408560A5
:100B30000A4D6D6805F46051C90A0B4D6B5C456840
:100B4000DD40C560054D6D6805F44041890B074DDA
:100B50006B5CC568B5FBF3F5056130BD0010024064
:100B600000127A0000093D00000000201000002063
:100B700021B1028842F04002028004E002884FF670
:100B8000BF731A40028070470246002013890B4051
:100B90000BB1012000E0002070478181704710B543
:100BA0000022028802F441520B884C8823438C882F
:100BB0002343CC8823430C8923434C8923438C89CA
:100BC0002343CC8923431A430280838B4FF2FF7463
:100BD000234083830B8A038210BD10B50446552041
:100BE00000F0DAFCA1780901627841EAC2112278AA
:100BF0001143C8B200F0EBFC10BD2DE9F84F0646DA
:100C00000F4614461D46DDE90A9AA01BE91B00FBAE
:100C100001FB681E83B2601E82B239463046CDF8B1
:100C200000A000F0F4FC4FF0000804E0484600F09B
:100C3000C5FC08F10108D845F8D3BDE8F88F0000DD
:100C400008B501210420FFF719FF0220ADF80000CC
:100C500010208DF8030003208DF802006946154826
:100C6000FFF77AFC02211348FFF70AFD0420ADF8D4
:100C7000000010208DF8030003208DF80200694663
:100C80000C48FFF769FC04210A48FFF7F9FC08202B
:100C9000ADF8000010208DF8030003208DF802004D
:100CA00069460448FFF758FC08210248FFF7E8FCB2
:100CB00008BD000000080140F8B504460D46164680
:100CC0001F462B46224629462046009700F09FFCEF
:100CD000304600F073FCF8BD10B5FFF7B1FF00F02F
:100CE000F1FB00F0DBFB112000F056FC7820FFF751
:100CF0003BFB002000F071FC3A2000F04DFC552039
:100D000000F065FCB22000F047FC0C2000F05FFC16
:100D10000C2000F05CFC002000F059FC332000F0B7
:100D200056FC332000F053FCB72000F035FC752052
:100D300000F04DFCC22000F02FFC012000F047FC29
:100D4000C32000F029FC162000F041FCC42000F074
:100D500023FC202000F03BFCC62000F01DFC0F20EF
:100D600000F035FCD02000F017FCA42000F02FFC90
:100D7000A12000F02CFCD62000F00EFCA12000F0F9
:100D800026FCBB2000F008FC3B2000F020FCE0200B
:100D900000F002FCF02000F01AFC0B2000F017FC21
:100DA000112000F014FC0E2000F011FC0D2000F0CA
:100DB0000EFC192000F00BFC362000F008FC33205C
:100DC00000F005FC4B2000F002FC072000F0FFFBC8
:100DD000142000F0FCFB142000F0F9FB2C2000F0A4
:100DE000F6FB2E2000F0F3FBE12000F0D5FBF02015
:100DF00000F0EDFB0D2000F0EAFB122000F0E7FB15
:100E00000B2000F0E4FB092000F0E1FB032000F0E0
:100E1000DEFB322000F0DBFB442000F0D8FB482052
:100E200000F0D5FB392000F0D2FB162000F0CFFBFC
:100E3000162000F0CCFB2D2000F0C9FB302000F084
:100E4000C6FBE42000F0A8FB252000F0C0FB00203A
:100E500000F0BDFB002000F0BAFB212000F09CFB5D
:100E6000292000F099FB2C2000F096FB10BD2DE905
:100E7000FF5F81468A4690469B460FACD0CC0E9DC4
:100E80003BE00C2C0AD15B46424651464846CDE930
:100E90000267CDE9005400F037F828E0102C0AD1A1
:100EA0005B46424651464846CDE90267CDE90054CB
:100EB00000F0D4F81BE0182C0AD15B46424651469C
:100EC0004846CDE90267CDE9005400F067F90EE02D
:100ED000202C0AD15B46424651464846CDE902677E
:100EE000CDE9005400F004FA01E0BDE8FF9F08F1ED
:100EF000020809EB04001FFA80F998F800000028A6
:100F0000BFD100BFF1E700002DE9F04F85B00646E4
:100F1000894692469B460F9C0020049001962046ED
:100F2000E21704EB5272D2102146E31704EB53731D
:100F3000DB10A4EBC3030BB1012300E000231A4430
:100F4000624392B202920120039000257CE005EBFF
:100F5000850000EBC500404911F810009AF8001018
:100F600088426ED105EB850000EBC5003A4901EBE4
:100F7000400040789AF80110884262D111980090A0
:100F800009EB0400401E83B23019401E82B249466C
:100F9000304600F03CFB002750E04FF0000847E0EF
:100FA000109808BB05EB850000EBC5002A4901EB52
:100FB0004000801CC05D012101FA08F1084018B111
:100FC000584600F0FBFA02E00E9800F0F7FA049899
:100FD000401CC0B20490049890FBF4F104FB110093
:100FE00010BB0020049026E005EB850000EBC50057
:100FF000194901EB4000801CC05D012101FA08F194
:10100000084028B15A4649463046119BFFF754FE26
:10101000701C86B20198301AA04205D1019E09F1D8
:1010200001001FFA80F906E008F1010000F0FF0856
:10103000B8F1080FB4DB00BF781CC7B20298874232
:10104000ABDB00BF681C85B203988542FFF67FAF1B
:1010500005B0BDE8F08F000074F401082DE9F04FF1
:1010600085B00646894692469B460F9C0020049018
:1010700001962046E21704EB5272D2102146E31784
:1010800004EB5373DB10A4EBC3030BB1012300E0AB
:1010900000231A44624392B2029201200390002579
:1010A00074E005EB05103C4911F810009AF80010A7
:1010B000884268D105EB0510374901EB40004078C4
:1010C0009AF8011088425ED11198009009EB040053
:1010D000401E83B23019401E82B24946304600F0AD
:1010E00096FA00274CE04FF0000843E01098F8B95A
:1010F00005EB0510284901EB4000801CC05D012173
:1011000001FA08F1084018B1584600F057FA02E019
:101110000E9800F053FA0498401CC0B20490049852
:1011200090FBF4F104FB110000BB0020049024E0CC
:1011300005EB0510184901EB4000801CC05D012142
:1011400001FA08F1084028B15A4649463046119B39
:10115000FFF7B2FD701C86B20198301AA04205D18B
:10116000019E09F101001FFA80F906E008F1010073
:1011700000F0FF08B8F1080FB8DB00BF781CC7B259
:1011800002988742AFDB00BF681C85B20398854296
:1011900087DB05B0BDE8F08F8EF401082DE9F04F34
:1011A00085B00646894692469B460F9C00200490D7
:1011B00001962046E21704EB5272D2102146E31743
:1011C00004EB5373DB10A4EBC3030BB1012300E06A
:1011D00000231A44624392B2029201200390002538
:1011E0007CE005EB850000EB4510404911F810004C
:1011F0009AF8001088426ED105EB850000EB45108F
:101200003A4901EB400040789AF80110884262D1D7
:101210001198009009EB0400401E83B23019401E63
:1012200082B24946304600F0F2F9002750E04FF014
:10123000000847E0109808BB05EB850000EB45105F
:101240002A4901EB4000801CC05D012101FA08F130
:10125000084018B1584600F0B1F902E00E9800F0CD
:10126000ADF90498401CC0B20490049890FBF4F1CE
:1012700004FB110010BB0020049026E005EB850064
:1012800000EB4510194901EB4000801CC05D0121B5
:1012900001FA08F1084028B15A4649463046119BE8
:1012A000FFF70AFD701C86B20198301AA04205D1E2
:1012B000019E09F101001FFA80F906E008F1010022
:1012C00000F0FF08B8F1080FB4DB00BF781CC7B20C
:1012D00002988742ABDB00BF681C85B20398854249
:1012E000FFF67FAF05B0BDE8F08F0000B0F4010855
:1012F0002DE9F04F85B00646894692469B460F9CE5
:101300000020049001962046E21704EB5272D2109E
:101310002146E31704EB5373DB10A4EBC3030BB1BB
:10132000012300E000231A44624392B202920D208E
:101330000390002574E005EB85103C4911F810007E
:101340009AF80010884268D105EB8510374901EB07
:10135000400040789AF8011088425ED111980090C0
:1013600009EB0400401E83B23019401E82B2494688
:10137000304600F04CF900274CE04FF0000843E005
:101380001098F8B905EB8510284901EB4000801C46
:10139000C05D012101FA08F1084018B1584600F07B
:1013A0000DF902E00E9800F009F90498401CC0B253
:1013B0000490049890FBF4F104FB110000BB0020A2
:1013C000049024E005EB8510184901EB4000801CD7
:1013D000C05D012101FA08F1084028B15A4649468A
:1013E0003046119BFFF768FC701C86B20198301ADA
:1013F000A04205D1019E09F101001FFA80F906E023
:1014000008F1010000F0FF08B8F1080FB8DB00BFD9
:10141000781CC7B202988742AFDB00BF681C85B258
:101420000398854287DB05B0BDE8F08FFAF4010828
:101430002DE9F84F0746884615461E46DDF82890E8
:101440000B98009008EB0600401E83B27819401EEE
:1014500082B24146384600F0DAF80024A24618E08D
:101460004FF0000B0FE019F8140000F0B0F8012164
:1014700001EB440119F8010000F0A9F8641C0BF11C
:1014800001001FFA80FBAB45EDDB0AF101001FFAFA
:1014900080FAB245E4DBBDE8F88F000010B500200B
:1014A000064908606420FEF75FFF01200449C1F887
:1014B00084016420FEF758FF10BD00008401214222
:1014C0000000214200B587B0012141F20400FFF77E
:1014D000D5FA2020ADF8180003208DF81A00182046
:1014E0008DF81B0006A91C48FFF736F820211A4882
:1014F000FFF7C6F88020ADF8180006A91648FFF7D8
:101500002BF880211448FFF7BBF84FF44040ADF8AA
:1015100004004FF48270ADF806000020ADF808001A
:101520000220ADF80A000120ADF80C004002ADF831
:101530000E000820ADF810000020ADF812000720C2
:10154000ADF8140001A90548FFF729FB0121034864
:10155000FFF70EFB07B000BD00080140003001405E
:1015600010B5044600200A49086000BF022109485E
:10157000FFF70AFB0028F9D021460648FFF70DFBCC
:10158000012000F069FB01200149086010BD000046
:101590008C0121420030014010B50446002005496D
:1015A00008602046FFF7DCFF01200349C1F88801ED
:1015B00010BD0000880121420000214210B5044600
:1015C0002012FFF7CDFFE0B2FFF7CAFF10BD10B544
:1015D00004462046FFF7C4FF10BD10B50446362070
:1015E000FFF7DAFF1CB90020FFF7F1FF0EE0012C36
:1015F00003D1C020FFF7EBFF08E0022C03D17020DD
:10160000FFF7E5FF02E0A020FFF7E1FF10BD2DE9A5
:10161000F04104460D4616461F46DDF81880B8F125
:10162000000F19D12A20FFF7B7FFA0B2FFF7C6FFBE
:10163000B0B2FFF7C3FF2B20FFF7AEFF05F1140197
:1016400088B2FFF7BBFF07F1140188B2FFF7B6FFBE
:101650002C20FFF7A1FF52E0B8F1010F19D12A2089
:10166000FFF79AFFA0B2FFF7A9FFB0B2FFF7A6FFFE
:101670002B20FFF791FF05F1140188B2FFF79EFFC1
:1016800007F1140188B2FFF799FF2C20FFF784FFC0
:1016900035E0B8F1020F19D12A20FFF77DFF04F1E0
:1016A000140188B2FFF78AFF06F1140188B2FFF730
:1016B00085FF2B20FFF770FFA8B2FFF77FFFB8B2BE
:1016C000FFF77CFF2C20FFF767FF18E02A20FFF7C9
:1016D00063FF04F1140188B2FFF770FF06F11401F3
:1016E00088B2FFF76BFF2B20FFF756FFA8B2FFF77A
:1016F00065FFB8B2FFF762FF2C20FFF74DFFBDE892
:10170000F081704710B500F001F810BD0CB5002055
:10171000019000903348006840F4803031490860FF
:1017200000BF3048006800F4003000900198401C71
:101730000190009818B90198B0F5A06FF1D129482F
:10174000006800F4003010B10120009001E000209A
:1017500000900098012843D12348006840F0100011
:10176000214908600846006820F003000860084628
:10177000006840F0020008601A4840681949486053
:101780000846406848600846406840F48060486009
:101790000846406820F47C1048600846406840F4E1
:1017A000E81048600846006840F08070086000BF9C
:1017B0000C48006800F000700028F9D00948406823
:1017C00020F00300074948600846406840F00200E6
:1017D000486000BF0348406800F00C000828F9D1B9
:1017E0000CBD00000010024000200240042808D177
:1017F0004FF0E021096941F004014FF0E02211614E
:1018000007E04FF0E021096921F004014FF0E022E8
:10181000116170477047000010B504466FF0040076
:10182000FFF7E4FFE11704EB5171C1F3C701074A69
:1018300011701046007800EB4001C1EBC0104FF66C
:10184000FF7101EAC0000249088010BD14000020A9
:101850001600002010B51348006840F0010011493F
:10186000086008464068104908400E49486008462C
:1018700000680E4908400B4908600846006820F4DB
:10188000802008600846406820F4FE0048604FF45D
:101890001F008860FFF736FF4FF0006004490860C2
:1018A00010BD0000001002400000FFF8FFFFF6FE30
:1018B00008ED00E010B540F225511D4800F060F839
:1018C00010B31B4800F0F2F8C4B21A48008800F4C4
:1018D0000040C8B91748008800F4804060B10A2C65
:1018E00003D000201349088020E01248008840F40B
:1018F00000401049088019E00D2C06D10D480088E1
:1019000040F480400B49088010E00A480088C0F38A
:101910000D0009490C5407480088401C05490880FF
:1019200008460088C72801DD0020088010BD00009F
:10193000003801401E0000202400002001F4007245
:10194000B2F5007F00D100BFCA430280704721B1C9
:10195000828942F40052828104E082894DF6FF734D
:101960001A408281704702460020B1F5007F00D105
:1019700000BF13880B400BB1012000E0002070472E
:1019800070B50246002400230025002040F66A16A8
:10199000B14200D100BFC1F3421501F01F0301267F
:1019A00006FA03F3012D02D19689334006E0022D99
:1019B00002D1168A334001E0968A33400C12012688
:1019C00006FA04F41688344013B10CB1012000E08B
:1019D000002070BD2DE9F04786B005460E46002474
:1019E000A24600BFA1460027B08900B100BF2F4624
:1019F0002C8A4CF6FF700440F08804432C82AC899A
:101A00004EF6F3100440B0883189084371890843C9
:101A10000443AC81AC8A4FF6FF400440B0890443D4
:101A2000AC8201A8FFF73AF81F48874202D1DDF8DF
:101A300010A001E0DDF80CA0A88900F4004040B13E
:101A40000AEBCA0000EB0A1031684900B0FBF1F85C
:101A500007E00AEBCA0000EB0A1031688900B0FB0E
:101A6000F1F86420B8FBF0F004012009642101FBC7
:101A70001089A88900F4004040B1322000EBC90071
:101A8000B0FBF1F000F00700044308E0322000EB67
:101A900009106421B0FBF1F000F00F0004432C8129
:101AA00006B0BDE8F0870000003801400146888894
:101AB000C0F308007047C1F308028280704700BF7E
:101AC000FEE700000FB4054B10B503A9044A0298C5
:101AD00000F018F810BC5DF814FB0000651C00084D
:101AE0002000002002E008C8121F08C1002AFAD115
:101AF00070477047002001E001C1121F002AFBD18E
:101B0000704700002DE9FF4F89B09B460446002531
:101B100006E025280BD05A460B999047641C6D1C93
:101B200020780028F5D10DB02846BDE8F08F0027B9
:101B3000B8460122474900E0074314F8013F203B23
:101B400002FA03F00842F7D120782E2819D114F8B0
:101B5000010F47F004072A280ED06FF02F022078DB
:101B6000A0F1300109290CD808EB880102EB4101F2
:101B700000EB0108641CF2E70A98641C50F8048B1F
:101B80000A9020780028CED0642808D0692806D092
:101B900075281ED05A460B9990476D1C58E00A993B
:101BA0004FF00A0901C90A91002802DA40422D21AA
:101BB00002E0390504D52B218DF82010012103E026
:101BC000F90704D02021F7E78A4608AE0DE000218E
:101BD000FAE70A994FF00A0901C90A91F7E749465D
:101BE000FEF7A0FA303106F8011D0028F7D1ADEB61
:101BF000060000F12009780701D44FF00108C8451C
:101C000002DDA8EB090000E000208046002706E086
:101C100008A85A46C05D0B9990476D1C7F1C57451C
:101C2000F6DB04E030205A460B9990476D1CB8F162
:101C30000001A8F10108F5DC05E016F8010B5A4691
:101C40000B9990476D1CB9F10001A9F10109F4DC71
:101C5000641C65E70928010000BF011EA0F1010016
:101C6000FBD1704770B504460D46E1B20548FFF759
:101C700022FF00BF80210348FFF775FE0028F9D03E
:101C8000204670BD0038014086B001240125102097
:101C90008DF8140001208DF815000B208DF816002A
:101CA0004820FFF7B9FD4FF4A060FEF7DBFE4FF4CC
:101CB000E130FEF747FEFFF70FF805A8FEF78DFFAE
:101CC0005DA0FFF7FFFE00204FF6FF714FF48C730D
:101CD000F022CDE900100146FEF78FFFFEF7ACFAC7
:101CE00059A0FFF7EFFEA5E0002020224FF6FF737A
:101CF000CDE90120009303904AF2516356A2AF212F
:101D00001E20FFF7B4F8002020224FF6FF73CDE924
:101D100001200093039042F6123352A2DC211E20D0
:101D2000FFF7A5F852480078052816D151480088D9
:101D3000002801DD012000E00020C8280DDC4E480D
:101D40000088822801DB012000E00020FA2804DC62
:101D5000032C01DA601CC4B201254548007805282F
:101D600016D144480088002801DD012000E0002051
:101D7000C8280DDC40480088002801DD012000E073
:101D80000020642804DC002C01DD601EC4B20125A3
:101D9000012D4FD1012C04D0022C1AD0032C48D194
:101DA0002FE000204FF6FF71AA23C822CDE90010D2
:101DB0000146FEF722FF0020304996231A46CDE95E
:101DC000001014212820FFF733FBFEF7D5F900257A
:101DD0002FE000204FF6FF71AA23C822CDE90010A2
:101DE0000146FEF70AFF0020254964231A46CDE983
:101DF00000101E214620FFF71BFBFEF7BDF9002552
:101E000017E000204FF6FF71AA23C822CDE9001089
:101E10000146FEF7F2FE00201A498C239622CDE9F6
:101E2000001014212820FFF703FBFEF7A5F9002579
:101E300000BF00BF58E700005354373738395620E9
:101E40005265616479210A00435354383136542075
:101E50005265616479210A00B4F3B9C5B4F3CBA724
:101E6000B8E70000C8FDC1ACA3ABB9D8D7A2000049
:101E7000180000201A0000201C000020881E000806
:101E80006072010850CE0008398939893989398949
:101E900039893989398839A839A839C839A839A878
:101EA00039A839A839A839A839A839A839A839A82A
:101EB00039A839A839A839A839A839A839A839A81A
:101EC00039A83988398939893989398939893989E4
:101ED00039893989398939893989398939893989F2
:101EE00039893989398939893989398939893989E2
:101EF0003989398939893989398941A941A839A864
:101F000039A939A839A839A939A93968398931686D
:101F100039A931894A4C18C5A4943988316839489F
:101F20003969316931A9296939AA624B9C316AEB57
:101F30005A6B3987732E31287B2F5A6B318731A921
:101F4000318931AA3189318931A9296852AD39C91C
:101F500031C92988296839EA31893189318931893A
:101F60003188398939893989398931A931A931A922
:101F700031A931A931A931A931A9318831A931A9B2
:101F80003989398939893989398939893989398941
:101F9000398939A939A939893989398939893989F1
:101FA0003989398939893989398939893989398921
:101FB0003989398939893989398939893989398911
:101FC000398839A839A839A839A839A839A839A829
:101FD00039A839A839A839A839A839A839A839A8F9
:101FE00039A839A839A839A839A839A839A8398809
:101FF00039893989398939893989398939893989D1
:1020000039893989398939893989398939893989C0
:1020100039893989398939893989398939893989B0
:1020200039893989398941A93988398839A839885C
:1020300039A93988398939883989398931893168A3
:10204000318810A5A4D539A8316839683968316953
:1020500031A931A929079412B4F4628A6B0D526B2D
:10206000524A5A6C8390628C5ACD31A9318931A978
:10207000318931A931893188422B296831A92988D0
:10208000318931A931893168318931893189398979
:1020900039893989398931A931A931A931A931A9B8
:1020A00031A931A931A931A831A9318939893989B1
:1020B0003989398939893989398939893989398910
:1020C0003989398939893989398939893989398900
:1020D00039893989398939893989398939893989F0
:1020E00039893989398939893989398939883988E2
:1020F00039A839A839A839A839A839A839A839A8D8
:1021000039A839A839A839A839A839A839A839A8C7
:1021100039A839A839A839A839A839883989398915
:10212000398939893989398939893989398939899F
:10213000398939893989398939893989398939898F
:10214000398939893989398939893989398939897F
:1021500039A941A93988398839A83988398839880D
:1021600039893989396939893969318831A921072A
:102170008C1239A8298831683968398939A9318898
:1021800020C6A4B4A49262CA6AED522A49E97B6FC0
:102190007B6F62AD6B2F316839A9318839A93989D4
:1021A000318931884A4B39C931A931A931893189FD
:1021B00031A931893189318939893989398939890F
:1021C000398931A9318931A931A931A931A931A977
:1021D00031A9318831A9318939A9398939893989B0
:1021E00039893989398939893989398939893989DF
:1021F00039893989398939893989398939893989CF
:1022000039893989398939893989398939893989BE
:102210003989398939893989398939A939A839A850
:1022200039A839A839A839A839A839A839A839A8A6
:1022300039A839A839A839A839A839A839A839A896
:1022400039A839A839A93989398939893989398920
:10225000398939893989398939893989398939896E
:10226000398939893989398939893989398939895E
:1022700039893989398939893989398939A939A90E
:102280003989398839883989396839893989398961
:102290003989396939893168318929484A2A296750
:1022A000298831883168398939A9318820E6941222
:1022B000838E522883D05A4B7B4F83907B5062CEC3
:1022C000524C316839A839A83989398939A93188F6
:1022D0003168528C31893188318831A939A93989DD
:1022E0003989398939A9398839883988398931A9A9
:1022F00031A931A931A931A931A931A931A931A80F
:1023000031A9318939A9398939893989398939898D
:1023100039A939893989398939893989398939898D
:10232000398939893989398939893989398939899D
:10233000398939893989398939893989398939898D
:10234000398939893989398939893989398839887F
:102350003989398839883989398839883989398872
:102360003988398939883988398839883988398963
:10237000398939893989398939893989398939894D
:10238000398939893989398939893989398939893D
:10239000398939893989398939893989398939892D
:1023A000398939893989398939893989398939891D
:1023B0003988398941CA39893989398939893989C5
:1023C000396839894A4C3168420B31A929893189E8
:1023D000318931883188318820C68370838F7B6E44
:1023E0009C9462CD5A6C9C537B9062EF39893988FA
:1023F00039A839A939883989398939A9318839A958
:102400003189318939A939A939A93989398939896C
:1024100039A8398839883988398939A9318931A960
:1024200031A931A931A931A931A931A931A93188FD
:102430003189318939893189318939A931A931897C
:10244000398939893989398939893989398939897C
:10245000398939893989398939893989398939896C
:10246000398939893989398939893989398939895C
:10247000398939893989398939893989398939894C
:10248000398939893989398939893989398939893C
:10249000398939893989398939893989398939892C
:1024A000398939893989398939893989398939891C
:1024B000398939893989398939893989398939890C
:1024C00039893989398939893989398939893989FC
:1024D00039A93989398939893989398939893988CD
:1024E000524C398939A939893989398939893188E9
:1024F0004A4B39CA4A2B39CA31A931A931A931A865
:1025000031A8318841EA8BF283B0ACF4945362ADC8
:1025100062CEACD55ACE39CA3968398939A93988D9
:1025200041893988398939A939A9398839A931893D
:1025300039A9398939A939893988398939A839882E
:1025400039883988398839A9318931A9318831895F
:1025500031A9318931A931A931A9318831A931890C
:10256000318931883188318931893188398939898E
:10257000398939893989398939893989398939894B
:10258000398939893989398939893989398939893B
:10259000398939893989398939893989398939892B
:1025A000398939893989398939893989398939891B
:1025B000398939893989398939893989398939890B
:1025C00039893989398939893989398939893989FB
:1025D00039893989398939893989398939893989EB
:1025E00039893989398939893989398939893989DB
:1025F00039893989398939893989318939893189DB
:1026000031893189398939A939A9398939A939A94A
:1026100039893189398939893189318939A9526CA6
:1026200039A9422B298929A931A831A831C829679C
:102630005AAC6AED838F9C728C124A2B83B27B70EA
:1026400041EA31893989398931893989398941881A
:10265000398939893989398939883988398939886D
:1026600039883988398839A939A839A83988398801
:1026700039A839A9318831A831A93189318939A9D5
:1026800031A931893189398939893989398931685B
:102690003188398939A9318839893989398939891C
:1026A000398939893989398939893989398939891A
:1026B000398939893989398939893989398939890A
:1026C00039893989398939893989398939893989FA
:1026D00039893989398939893989398939893989EA
:1026E00039893989398939893989398939893989DA
:1026F00039893989398939893989398939893989CA
:1027000039893989398939893989398939893989B9
:1027100039893989398939893989398939893989A9
:1027200039893989318931883189318931893189CA
:10273000318931A939893189318839EA31A939A9F1
:1027400031683189318831893188630E39A84A4B23
:10275000296829A929A929882988296741EA398866
:102760007B8FB556630E316941CB737139CA2969C4
:10277000398939893189398939894188398939894A
:1027800039893989398839883989398939A939891B
:10279000398839A839A939A839A839A839A939A94E
:1027A00039A839A939A939893989398939893989BA
:1027B0003989398939893989398939893989398909
:1027C00039893989398939893989398939893989F9
:1027D00039893989398939893989398939893989E9
:1027E00039893989398939893989398939893989D9
:1027F00039893989398939893989398939893989C9
:1028000039893989398939893989398939893989B8
:1028100039893989398939893989398939893989A8
:102820003989398939893989398939893989398998
:102830003989398939893989398939893989398988
:1028400039A9398939A931A939A931A931A931A9B8
:10285000318931A9318931893189318931A931A948
:102860003189318931A931C939EA39CA3188526C83
:1028700039A93168420B39A9526B41EA318831AA32
:1028800031AA31A9296939EB3148524B7B8F9472B7
:10289000420A528D39CA4A2C3189316831A93989A5
:1028A0003989398939893989398939893989398918
:1028B000398939883988398939A93989398839A8CC
:1028C00039A839A839A839A839A839A8398939A91E
:1028D00039A93989398939893989398939893989C8
:1028E00039893989398939893989398939893989D8
:1028F0003989398939893189318939A931893189C8
:1029000039893989398939893989398939893989B7
:1029100039893989398939893989398931893189B7
:102920003989398939893989398939893989398997
:102930003989398939893989398939893989398987
:102940003989398939893989398939893989398977
:102950003989398939893989398939893989398967
:102960003989398939893989398931A931A931A90F
:1029700031A931A93189318931A9318931A931A9E7
:1029800031A931A931A931A931A931A931C931A957
:1029900031A931A931C939EA318962EE420B29479F
:1029A00039CA20E673504A2B31892129422C39EB50
:1029B000296939CB62CE84135AED4A2A528C296890
:1029C000294821283168318831A9398939893989DB
:1029D00039893989398939893989398939893989E7
:1029E0003989398839883988398839A939A839A87D
:1029F00039A839A83988398839A839A8398939894D
:102A0000398939893989398939893989398931A99E
:102A100039A931A93189318931A931A9318831895F
:102A200031893188318831A9318931A931A9398970
:102A30003989398939893989398939893989398986
:102A4000398939893989318931893189398939898E
:102A50003989398939893989398939893989398966
:102A60003989398939893989398939893989398956
:102A70003989398939893989398939893989398946
:102A80003989398939893989398939893989398936
:102A9000398931A931A931A931A931A931A931A97E
:102AA00031A931A931A931A931A931A931A931A956
:102AB00031A931A931A931A931A931A931A931A946
:102AC00031C931A9318941EA526C62CE6B2F294854
:102AD000630F6B5073508414420B526C4A4C8C330E
:102AE000AD1773B2632F39EA39CA29682988318949
:102AF00031A93988318939893988398839893989B9
:102B000039893989398939893989398939893989B5
:102B100039883988398839A939A839A839A839A80C
:102B200039883988398839A9398939893989398978
:102B3000398939893989398939893989398931898D
:102B40003189318931A931A9318831883188318978
:102B500031A931A931893189398939893989398945
:102B60003989398939893989398939893989398955
:102B7000398931893189318931A931A9398939892D
:102B80003989398939893989398939893989398935
:102B90003989398939893989398939893989398925
:102BA0003989398939893989398939893989398915
:102BB000398939893989398939893989398931890D
:102BC000318931A931A931A931A931A931A931A955
:102BD00031A931A931A931A931A931A931A931A925
:102BE00031A931A931A931A9318931C931C939C9CD
:102BF00039A94A0B62EE9CB5BDDA8C3373914A4C0D
:102C00005AAE528D39C94A2A9C94B557D65B9495D1
:102C10003A2B422B29483189296731A9318839A9B2
:102C200031883988398839883988398939893989A1
:102C3000398939893989398839A939A939A939A806
:102C40003988398839A839A839A83988398839881C
:102C5000398839A93989398939893989418939893D
:102C60003989398939893989398939893989398954
:102C7000398939A939893989398939A939A93989E4
:102C80003989398939893989398939893989398934
:102C90003989398939893989398939893189318934
:102CA00031A93188318931A93189318939A93989E5
:102CB00039893989398939A93989398939893989E4
:102CC00039893989398939893988398939893989F5
:102CD000398939893989398939883989398939A9C5
:102CE0003989398939A9398931A9318931893189B4
:102CF00031A9318931A931A931A931A931A931C904
:102D000031A931A931A831A831A931A929A831A9FE
:102D100031A931A931A931A931C931A8524C5A8CF4
:102D20008C33630E949594B5296939EB2969298907
:102D300039EB39A9630EB578AD37526C528D31A994
:102D400031693189398939A9398939883989398885
:102D500039883989398939893989398939A939A924
:102D600039A839A839A839A839A839A8398839889B
:102D700039C839A839A839883988398841A841A87B
:102D80003988398939893989398839883988398937
:102D90003989396939893989398939893989398943
:102DA0003989398939893989398939893989398913
:102DB0003989398939893989398939893989398903
:102DC000398939A931893189318931A931A931A9A3
:102DD00031A931A931A931A931A931893189318983
:102DE0003189318831893189318931893189318815
:102DF0003188318831893189318931893189318905
:102E00003189318931893189318931A931893189D2
:102E1000318931A93189318931A931A931A9318962
:102E200031A931A931A931A9318939C931A931A9CA
:102E300031A9318831A931A931A931A931A931A9E3
:102E400031A931C93A0A31885AAD41EA6B2F39C9E3
:102E5000316839A952AE52CE31CA31AA31AA4A4C90
:102E60008C546B2F6B50318931893169398939899B
:102E700039893989398939893988398839A9398924
:102E800039893989398939893989318839A839A8FD
:102E900041A839A839C839A839A839A839A839A802
:102EA00039A839893988398839A839A839A839A978
:102EB0003989398939893989398939893989398902
:102EC0003189318931893188318931883189318934
:102ED00031883189318831893189318931A9318805
:102EE00031883189318931A931A931A931883188B5
:102EF00031A931A931A931A931A931A931A931A902
:102F0000318931A931A931A931A931A931A9298939
:102F100031A931A9298931A931A931A931A931A909
:102F200031A931A931A93189318931A931A931A911
:102F300031A931A931A9318931A9318931A931A901
:102F40002989298931A931A929A931A931AA29A910
:102F500031AA31AA31893189318931A931A931A9FF
:102F600031A931A931A931A931A931893A0A29C92F
:102F7000424B31A94A4B420A420B31888C3394951B
:102F800029893A0B29A931AA31CA31A92948292707
:102F9000420B2948318939893989398939893988F0
:102FA0003988398839A839883989398939893989F5
:102FB0003989398939883988398839A841A839A89F
:102FC00039C839A839A839A839A839A839A839A9D8
:102FD00039883988398839A839A839A93988398987
:102FE0003989398939A9398939A9318931893188AA
:102FF0003188298831A8298831A931A929A831A97E
:10300000298831A83188298829A8298829A931A99E
:1030100031A83188318831A931A831A83189318965
:1030200031A931A931A931C931A931A931A931A9B0
:1030300031A9318931A931A9318931A931A931A900
:1030400031AA31CA31A931A931A9318931A931A9AE
:1030500031AA31AA31AA31A929A929A931A931A9AD
:103060003189318931AA31AA31AA31AA31AA31AACA
:1030700029AA31AA29AA31CA29AA298931AA2989C2
:1030800031AA296931AA29AA29AA29AA296929AA1A
:10309000298A31AA318931AA31EA31E9296839CA44
:1030A0006B6F41EA318831893989210731A9426C36
:1030B00031A931A931C9318931A93188294831680B
:1030C00039893989398939893989398939A939A8B1
:1030D00039A8398839A839A8398839893988398986
:1030E00039A939A83988398839A839A839A839A817
:1030F00039A839A839A839A839A839A93988398807
:1031000039A839A839A839A939A839A939A931A8BC
:1031100031A82968318831A931A831A831C9298855
:1031200031A9318831A831A9318831A931A9318833
:1031300031883188318831883188318831893989BD
:10314000398931893189318931A931A931A931C907
:1031500031A931C931A931A931A931A931A931A97F
:1031600031C929C929C931CA29C929C931CA29CAB4
:1031700029CA29EA29EA31EA31A931AA31CA31CA70
:1031800031CA31CA31CA31EA31CA31CA31AA31AA87
:1031900031CA31EA29CA31EB31EB29EA31EB320B82
:1031A000320B3A4C322B322B320B3A2C320B320C84
:1031B000320C3A4C3A2C3A4D3A2C3A2C320B31EB39
:1031C00031CB3A4C3A6C428C52AD7BB1630E630EFC
:1031D000528D5ACE4A2C7BF339EB39CA31A9318949
:1031E00031A9318931883168316831893989398922
:1031F000398939893989398939A839A8398839A863
:1032000039A839A839A839883988398939A839A815
:1032100039A839A839A839A839A839A839A839A8A6
:1032200039A839A839A839A83988398839A839A8D6
:1032300039A839A939A839893189318931A9296849
:10324000298829882989298929AA29AA29AA29898D
:1032500029AA298929892989298931AA29892969B4
:1032600029892989298929692969298931AA296905
:103270002989318A29C929A931C931C931A931A975
:1032800031A931A931A931CA31CA31EA31EA29EA71
:10329000322B322B322B3A4B3A6B324B324B324B76
:1032A000324B322B39EA39EA31EA31EA31EA31EA92
:1032B000320A3A0B320A3A2B3A0B3A0B31EB320B09
:1032C00029EA324C3A6C324B3A8D3AAD3A8C42CDC7
:1032D0003AAD42AD3A8D3A8D42AE3A8D42AE428E13
:1032E0003A6D428E42CE428E42CE4ACE4ACF42CE36
:1032F00042AD4AAD6B4FA4D541EA73704A4B6B7136
:1033000031AA31AA31693189318939A931A9318983
:1033100031893188316839893989398939893989D7
:103320003988398839A839A839A839A839A839A8D5
:1033300039A839A839A839A839A839A839A839C865
:1033400039A839A839C839A839A839A839A839A855
:1033500039A839A83988398839A839A839A839C885
:1033600039A831A9318A39EB528E52CE4ACE428EDB
:103370004AAE428E428E428E3A4D322C324C3A8DBB
:103380003A8D3A6D3A6D3A6D3A4D322C3A2D3A4DAE
:10339000322C322C3A4D3A4D3A4D29EB320C320C4C
:1033A00029C929A931C931A931A929A929A929A935
:1033B00029A931A931C931C931C931C931EA31A984
:1033C00031C931C929C9320A31EA29EA31EA320A56
:1033D00031C931EA29CA31EA320A2A0A29EA320A0B
:1033E000320A320B320B3A2B322B322B322B3A4C25
:1033F000322B3A6C3AAD3AAD3AAD3AAD42CD4AEEE7
:1034000042AD42AD42AE42AD42CE42CE324C3AAD7A
:1034100042AE42CE4AEF53304B304B2F4B0E4AADAB
:103420004A6C83D239A9630F31C939EB420C31AAF6
:103430003189398939A939893189318839A939A935
:10344000398939893989398939893989398839886E
:1034500039A839A839A839A839C839A839A839A844
:1034600039A839A839A839C839A839A839C839A814
:1034700039A839A839A839A839A839A839A839A844
:1034800039A839A839A839A839A939C939A831A81A
:1034900029684A8D632F5B4F5B705B505B4F5B4FBE
:1034A0005B4F5B6F536F5B904B4F53904B2F4B2F8A
:1034B000532F4B2F532F532F532F532F4B0E4B0E56
:1034C0004B2F4B2E4B2F4B0F4B0F4AEE31A931A9EF
:1034D00031A931A931A931A931A931A929A931A924
:1034E00031A931A931C931A931A9318831A931892D
:1034F000318831A931A931A931A929A929A929A935
:1035000029C929EA29EA320A2A0A320A320A3A4B36
:1035100031CA31EA31EA31EA29C929C929C929C997
:1035200031EA320A320A320A320A322A320A29EAE5
:10353000322B3A4C3A6C42AE3A6C3A6D3A6C324CA1
:1035400042AD4AEE4B0E534F530E5B0E528D4A4C1A
:103550004A4C31AA3A0B298931CA31A939893989AA
:10356000398939893989398939893989398939894B
:1035700039893989398939893988398839A839A8FF
:1035800039A839A839A839C839A839A839C839A8F3
:1035900039A839A839A839C839C839A839A839A8E3
:1035A00039A839A839A839A839A839A839A839A813
:1035B00039A839A839A939A939A831A829884A8C44
:1035C0005B4F63905B6F5B6F532E5B6F5B6F5B6FEB
:1035D00063AF63D05BB05390536F4B2E4B2E4B2E8B
:1035E0004AED532E532E4B0E4B0E430D536F4B2E65
:1035F0004AEE4B0E4B2F4B0E31A931A931A931891F
:10360000318931A931A931A931A931A931A931A90A
:1036100039A931A93188318839A9398939A939A914
:1036200039A9318931A931A931A931A929A929A9F2
:1036300031C931EA31EA31EA31EA31CA31EB29AA3A
:1036400031A931C931C931C931C929A929A931A93A
:1036500031A929A8298829A829A9298829A929A916
:1036600029CA3A4C426D428D320B21AA322B4ACEE6
:1036700042AC428C634F422A62EEAD5873D27BF368
:1036800031AA31A931A931A83989398939893989CA
:10369000398939893989398939893989398939891A
:1036A000398939893988398839A839A839A839A890
:1036B00039A839A839A839A839A839A8398839C802
:1036C00039A839A839C839A839A841A839A839A8CA
:1036D00039A839A839A839A839A839A83988398822
:1036E00039883988398939A931A84A6B638F5B6F6A
:1036F000532E42AC42AD532F5B4F5B6F63B063B050
:103700005B905B90534F534F532E42AC3A6B3A6BE6
:1037100042CD322B2A0A3A8C534F532F42AD42AD41
:103720004AEE4AEE31A931A931A929A929A929A925
:1037300029A929A929A929A929A931A931A9318901
:10374000318931883189318939A9318931A9318863
:1037500031A9318931883188318931A9318939EAF2
:1037600031A931C931CA3A0B39EB31CA31CA31A951
:1037700031C929A931A929A929A929A931A931A979
:1037800031C931C931A931A931A929A931CA426C3C
:10379000428D3A4C29EA29EA3A4B534F3A6B21675A
:1037A0007BB15A8C6B0E8C33AD57633039EB31A93A
:1037B000318831A9398939893989398939893989EA
:1037C00039893989398939893989398939893989E9
:1037D0003988398839A839A839A839A839A8398841
:1037E00041A839A841A841A8418841A839A839A8C9
:1037F00039A839A841A839A839A839A839A839A8B9
:1038000039A839A839A839A839883989398939892D
:10381000398939A839A84A4B6B7052EE2A0A29CA4D
:1038200029EA42AD428D428D5B7063B129EA21A93C
:10383000218929CA29892189216829A9298929C990
:1038400029CA426C5B2F426C320A29A929AA29CACB
:1038500031A931A931A931A929A929A929A929A9B8
:1038600029A931A929A931A931A931A931A931A998
:103870003189318931A931A931A931A931A931A9B8
:10388000318831A93189318931A931C931A931C989
:1038900031CA39EB31CB298A31A931A939CA31CAA8
:1038A00031C931C931A931A931A929A931A931A910
:1038B00031A831A831A931C929A9426C428D320BF6
:1038C000322B324B42CD5B503AAD31EA7B907B2FAD
:1038D0008C1183F16B4F4A0B3148316931AA31A900
:1038E00039893989398939893989398939893989C8
:1038F00039893989398939893989398939883988BA
:1039000039A839A839A839A8398741C93988396807
:1039100041A841A851EA418841883988398839A8A5
:1039200039A839A839A839C839A839A839A839A86F
:1039300039A839A83988398939893989398939883B
:1039400039884A4B6B9042AD21A929CA3A4C426D45
:1039500029CA320B532E63D129EA29A929AA29A9F8
:103960002989298931A929A929A929A929A9428C03
:103970005B2F3A0B29CA218929AA3A2C39A931A9E6
:1039800031A931A931A929A929A929A929A931A987
:1039900031A931A929A931A931A931A931A931A95F
:1039A000318931A931A931A931A931A931A931A967
:1039B00031A9318931A939EA31A931CA31CA31EB8A
:1039C00031EB29AA31AA31A9298939EA31C931C98A
:1039D00031A931C931A931A931A931A9318831A819
:1039E00031A929A929A9426D426C29CA21C9322BC2
:1039F0004AEE5BB142EE426C9432B5158BF0A4B343
:103A0000B5567B6F522B39CA39EA31A931893989C8
:103A10003989398939893989398939893989398996
:103A200039893989318839883988398839A839A854
:103A300039A839A83987624B49A84188416841476C
:103A400051C94148418839A8398739A839A839A8C6
:103A500039A839C839A839A839A839A839A839A83E
:103A6000398839893989398939893988318839EAF0
:103A70006B704AAD29CA3A4C428D29AA31A931C985
:103A8000532E6BD0320B29A929A929A9298A298962
:103A900031A9298931A931AA29A94A8C63503A2B25
:103AA00029CA29AA320C3A2C318831A931A931A965
:103AB00031A931CA31C931C9318931A931A931A9F5
:103AC00031A931A931A931A9318931A931A931A946
:103AD00031A931A931A931A929A931A939A9318936
:103AE00031C931CA31CA31AA31CA320B3A4C21A983
:103AF00029C929A931C931C93A0A31CA31CA29A902
:103B000031A931A931A831A931A929A831A931890F
:103B100031A93A2C4A6D29CA29CA29C93A4B5B9066
:103B20004B2F630EC556CDD894317B6E94318BCF1D
:103B30007B6E630E5AED420A3188318931883188B3
:103B40003188398939893989396839A9398839A950
:103B500039A839A841A84168416841893988418814
:103B600051A76A0951A841884988494761CA69EB48
:103B7000496839A83987398839A83988398839880E
:103B800039C839C839A839A839A839A8398839892C
:103B900039893989398939893189422B6BB142ADEB
:103BA0003A4C4AAD29CA298931AA31CA5B4F6BD137
:103BB000426C29A92988318A298A298929CA3A0B7C
:103BC000424D298929A94A8C63B03A4B29CA322B24
:103BD000426D29EB31A831A929C931A931A931CACE
:103BE00029CA31C931A931A931A931A931A931A9CC
:103BF00031A931A931A931A931A931A931A931A9F5
:103C000031A931A931A931C939A9298829C93A2B42
:103C100031AA31A929A9320B3A6C322B29C929C9F9
:103C200029A931CA31EA3A2B29A931CA31A931A9C6
:103C300031A931A931A931A931A931A929893A2C50
:103C40004A8E29AA29AA29CA3A2A63B0532F739007
:103C5000C577B5159C729410A4B3941093F0526B71
:103C60004A4B39C931A931A9318831A931883989FB
:103C70003989398941A93988398839883988418809
:103C800041884148416841884188416761E971E95B
:103C90005188418851A8518861A959684947398894
:103CA0003987398839884188418839A839A839C87D
:103CB00039C839A839A83988398839893989398979
:103CC0003989398931884A6C6B915B504ACE31CA47
:103CD00029A9298931AA31AA637074113A4C29891A
:103CE00031A9298A298A2989320B426D31AB298968
:103CF00029A9426B6BD1426C3A4C428D31EB29AA17
:103D0000318829A931EA31CA31AA31CA31EA31C927
:103D100031C931A9318931A931A931A931A931A9D3
:103D200031A931A931A931A931A931A931A931A9C3
:103D300031A931A931A9318929A93A2B31A931A950
:103D400029A93A4B3A6C322B31C931C931C931CA30
:103D500031C931EA3A0B31CA31CA29A931A931A98D
:103D600031A931A931A931A931CA428D42AD29AA5F
:103D700031CA29A9422B73D16BB07BD0D639C5B7D4
:103D8000B5556B0DBD769C5193D04A09528C29686C
:103D900031A929A831A9318839A9398939893989BD
:103DA00039893988398841874988518851884988B3
:103DB00041884168416751887A6B69E9516849884F
:103DC00051A85988596869C9494739474188418884
:103DD00049884168418841A839A839A839A839A833
:103DE00039A83988398839893989398939893989A6
:103DF00039A9528C6B916391320B29A931CA31A92F
:103E000039AA31AA6BB07C52322B29CA29A8298938
:103E100029693A0B4A8D31EB31AA298929A952CD5A
:103E20006B905B2E4AAD320B29AA298A31A829A9A9
:103E300031EA31CA31CA31CA29C929E929A931A9C6
:103E400031A931A931A931A9318931A931A931A9C2
:103E500031A931A93189318931A931A931A931A9D2
:103E6000318931A931C93A2B29A931A929A93A6C3B
:103E70003A4B29C931C931CA31A931CA31AA31AA4B
:103E80003A0B424C31EA298931A931A931A931AA29
:103E900039AA31CA31CA428D42AD29EA31CA31A9A3
:103EA0004A8D73D174128C52D638CE18B57683F001
:103EB0009C71ACB28BAF628B524B31A931A931A945
:103EC00029A931A9318939893989398939683988E4
:103ED000418851A861C8722B516849A849A84988EE
:103EE00049885988826B518849684968516859687E
:103EF0006188826A5167414749A849885168496881
:103F0000418841A839A839A839A839883989398917
:103F10003989398939893989398939893188528C7E
:103F200073B152EE29A9298931A93189318A39EA37
:103F300073F184733A8C21A9218829893A0B5AEFAD
:103F400039EB31CA31AA29A929A94AAC7C12636F7D
:103F5000426C29A931AA31AA31A931A929C931A9AB
:103F600031CA29C929EA320A29A931A9318931A9D5
:103F700031C931A931A931C931C931A931A931A911
:103F800031A931A931A931A931A931A931893189A1
:103F900031EA426C31EA31C929894AAD42AC21C9C2
:103FA00031C931CA39EA31CA31CA31CA31CA3A4C87
:103FB000426D31EA29CA29A931AA31AA318931A928
:103FC00029A93A6C42CD320B29CA29A9426B7C320D
:103FD000638F8C52D638D658AD3594527B6DBD3434
:103FE000834E7B2E524B39C93189318829A929A8A2
:103FF00031A93989398939893988418751A86A09AC
:104000007A098A8B61A851A7498751A8496769A88D
:10401000824A492651885148598861886188AB8E07
:104020005146498849895188596859884968418861
:104030003988398839883989398939893989398973
:10404000398939893989398931885AED7BF152EEBC
:104050002989298931A931A93169420B84328CD44B
:10406000324C21C929A9422C5AEF4A6D31CA31AAD2
:10407000318A298929A95B0E7BD15AED31EA31CAEF
:10408000298A318A31A929A929A931A931CA29A99D
:10409000320A3A4B29A931A9318931A9298931C973
:1040A00031CA31A931A931CA31C931C931C931C97E
:1040B00031A931A931A931A931A9298931EA424C63
:1040C000320A31CA29884ACD4B0E29E929C929A9C2
:1040D0003A0A3A0B31A931CA29CA31EA428D428DD6
:1040E00029EA29C929A931A93189318929A9324B5C
:1040F00042ED29EA29EA29A9428C74325B8F6B6E62
:10410000C595CE17AD1462EDB533ACD293F06AAC61
:1041100062AC39C841E939C931A929A9298931894C
:10412000398939893968416761E97A0979C78A6AC1
:10413000618751C751A759875187720A79E951267A
:1041400061E951476167698869A7B3CF61A8496888
:1041500049895989596869CA516841683968396813
:104160003988398939893989398939893989398940
:10417000398939883168630E84325B0F298929892E
:10418000298831A92948422B845294F4532F21A91C
:10419000320A5B2F52CD422B31EA31A939AA39AA12
:1041A0004A2B73B083F152AC320A29A931AA318A61
:1041B00031A931A929A931CA31CA29A9324B3A8C6E
:1041C00029C931A9318931A929A931C931EA31CAAD
:1041D00029A931EA3A0A31EA31A931A931A931A92B
:1041E00029A931A931A931A939EA426D320B29C96E
:1041F00029A94AAC4B0E21E929C929A929CA3A2B78
:10420000320B31EA320A29C92A0A42AD324B21A9BE
:1042100029C929A9298929A931E9320A3A8B29E929
:1042200029C929C94ACD84D4641173D08BCEACF38B
:1042300094317B8FD5F7ACB2ACD3834E838F4A09D0
:104240004A0A39A831A929882989318931893988C7
:1042500041A8498772298229822892AA69C8516790
:1042600059A859685988722B594761A7724A512633
:1042700071A88A6B6125B3EF61C84968498859887C
:1042800069A969A95968496841883988398839888C
:10429000398939A9398939893989398939893989EE
:1042A000398862ED7BF15B2F298931A929A931A9D0
:1042B0003169422B8C72A5554B0D3A8B5B4E5B2DB1
:1042C000426A3A49422A39E94A2A5AAC83B08C11E7
:1042D0008C525AED3A4A29C931CA318A31A931A9D9
:1042E00031CA31CA31CA29C93A6B42AC29E931A96C
:1042F00031A9318931CA31CA3A0A3A2B31EA31C976
:1043000031C93A0A422B31CA31A931A931A93189BF
:1043100031A931A939EA426C320A29C929A9530EB7
:10432000536F2A0921C929CA29A931EA3A2B3A2A05
:104330003A0A3A4B3A4B428C4ACD4ACD322A29E9C5
:1043400029CA31CA320A42AC4AED320A29EA29C9DD
:10435000530D8CD474936BF0630C94308BCF9C72A0
:10436000A4B1A4919C309C317B6E734E41A839A9B5
:1043700031A829A8296841EA398941A941A851876A
:104380007A2982298A699B0C69C8596761A969A938
:10439000618961A951067A2A69C959069ACCB36E16
:1043A000698692EB512649474168518861A971CAD3
:1043B0005968516849884188396839A839A939A9A3
:1043C00039893989398939893989398831685AACC3
:1043D00083F15B2F29A931A931A931AA2969420AA0
:1043E00094B3A5955B8E63AF5B4D6B6D634C52EBE5
:1043F0004A8A528A6B2D8BF08BF094109C92738FAB
:104400004A8B3A0A31CA31AA31A931A931AA31CA33
:1044100031EA29C93A8C4B2E29E929A931A931CA97
:1044200031CA31CA31CA424C426C31EA31A931C970
:104430004A8C422B39CA31A931A931A931A931CAD3
:1044400031EA4AAD3A2B29A929A95B4F6C102A4AB7
:1044500029EA29C931EA31C93A0A4A8B428B428B8F
:104460004A8B428B4ACC5B4E4B0D324A2A0A320AA7
:10447000320A530D5B4E3A4B320A29C95B0D9D55EA
:104480007CD342CB4A8A6B2D9431ACD39451838E2A
:10449000A47293F08BF083D14A4B318831A931A9B2
:1044A00039EA4A0B418941A9498859A7720992AB57
:1044B0008A4992CB69C76188616871EA592759476F
:1044C00061888A6B69885926AB4DBBAE7A0771E863
:1044D000594651474168496869C96188594861A985
:1044E00051474147416841A839A839A939A93989B3
:1044F000398939893989398931685AAC84115B0E17
:1045000029A931A931C93189296939C99D14B61739
:1045100084D263AF4249E73BCE787C0E736D7BAEAD
:104520008C109C518BCE9410A4D394715B0D424B94
:104530003A0A39EA31A931CA31AA31EA320A29C91B
:10454000430D5BD0326A29C929A931CA29A931C9C9
:1045500031C939EA4A8C424B3A0A39E9422A52AC0B
:10456000422B39E939C931A931C931C939EA52ADCA
:10457000322A29C929E86BAF7471328A29E931EAF4
:104580003A0A31C9424A4A8B634E5B0D52AB52AB79
:104590004A8B52CC636E4ACC2A0A2A0A322A532EFC
:1045A0005B4E3A6B29E929E95B2DA5759595328A11
:1045B00019464A6B9431AC929430732CA47249C75B
:1045C000732E73704A4B39C931A9318941EA39CA0E
:1045D00039A94189498859A87A2992AB8A6A7A29E6
:1045E000616671A871C969886167618792CB8A6ABF
:1045F00079E96126AB4CBBED8A685966722A51276E
:10460000416749886A2B5947596861A959485988AF
:104610004947418839A839A939A939A93989398837
:104620003989398939885AAC8C32530E218931A99C
:1046300031A92989214839E9A575BE787CB24B0C8E
:10464000530C94D2AD33840E83CF9430A4929C103B
:1046500093EFA491A4D283EF62EC632E4A6B420ADB
:1046600029A931A931CA320A320A29E94B4E6451CB
:104670003ACC29C931C931C9318931C93A0A39C954
:10468000424B52AC52AC4A6B4A4B4A6B5AAC4A4B07
:1046900039EA39EA31E931C939EA52CD3A4A3209BF
:1046A00029C874107CB242EC320A31CA39EA39E9BD
:1046B000422A528B6B4E7BAF736E526A4A4A4A4A09
:1046C0005AAB632E4ACD29E9322A532D5B6F324B08
:1046D00021E921C85B2DADD695F52A69198729A94D
:1046E0005AACACD48BAF83AE8BAE49E86AEE4A4C81
:1046F00039EA39C931A9318952AD39EA31A939A923
:1047000059EA69E97A098A4A82298A6A71A78A6A12
:10471000820971C871E88A8A9ACA9269928A71A7D5
:10472000B38CAB6B9B0A48E58AAD59474948498829
:1047300059E9618959286189614871C95167498777
:1047400041A839A839A839A939A9398939893989B4
:10475000398862AC94735B2F29A931A929A92989C9
:1047600021284A4AB5D6C6FA5BEE3AAA4AEB8C70C3
:104770009CB08C2EA4B1B513ACD1ACB1ACB1ACF241
:10478000B533942F7B6D6B2D5AAC4A6B31AA31CA6D
:1047900031C931EA322A21E953AF6CB23AEB2A0926
:1047A00031E9320A3A0B422B4A4B422A4A6B5ACC25
:1047B000736F6B2D5ACC62CC6B2D6B0D4A6B424BD9
:1047C000422A39E93A2A52CD42AB320929C87C51F2
:1047D0008D13430B3A4B39EA3A0A4A2A526B62EC80
:1047E0007B6E8BF08BF083AF734D62EC62CB6B2DE5
:1047F0006B6F52ED428B636E638F326B220A21E93D
:10480000638EBE57961532CA21E919A939E9941168
:104810009C51940F5A49526B4A2C39CB39AA39AA68
:104820003189422C6B7031EA31A939A949C96A0A28
:104830007A4B822A79E88A6982089AEB92AA8A6975
:1048400092EAA34BA30AAB2B9B0B71A6ABACB3CCE8
:104850008268616771A969A9412741883947722B2C
:104860005148514879EA824B722A49474188398830
:10487000398839A8398939893188316739887B6F16
:104880009472530E218931A931A92168214852CC53
:10489000BE38D75B644E432B4AEAE71ADEB8B573DD
:1048A000C574C594CDD4CDB4CDB4C593C594A491ED
:1048B0008BCF7BAF630D52AC39AA31A929C932091C
:1048C0003A6B2A095BEF74F24BAD2A09322A322B7C
:1048D000424B4A4B4A4A5AAB62CB6B0D7B4E8BCF55
:1048E0007B8D734C730C7B4E7B6F528B4A4A3A4ADA
:1048F0004A8C5B2E428B322A31EA8C9295944B6C17
:1049000042AB424B4A8B5A8C730D836E93EF940FDC
:10491000A4909C50940F8C107BAD734C738E7BD005
:10492000632D73AF6BCF42CC2A4B2A4A6BCEC6B8ED
:10493000A697436C2A4922093A0962CCACD3941059
:1049400062AC4A6B422C296A39AA39AA4A2BC63B67
:1049500052EE218931AA3189398949A859E969E892
:104960007A498A899289AB8CAB6CA36BABACABAC4C
:10497000AB6CAB4C9B0A7A27B3EEB3ED71C59AEBE7
:104980008208618741683988398849884968496857
:1049900069C88AAA9B4C390541A8398839A8398841
:1049A00039893989396831467B2EACD39C925B2E8C
:1049B00029A831A9296831A95B4E73EFCEB9DF7CF4
:1049C0006C905BAD6B8D83EFB533C594C594DE778A
:1049D000EF19EF19E6B8DE57D5F5B5139C718BF0DA
:1049E000736E62EC31AA31CA31C93A4A3A6B2A294C
:1049F0006C51857453EE2A09324A3A4B4A6B528CF9
:104A00005ACC732C7B6E838E8BCF940F9C50940F5B
:104A10008BCE83AE83AF7B8E52AB426A4AAC6BAF18
:104A2000530D324A29C994D39DB553EE428A4ACCDC
:104A30005AEC6B0D838F93CFA491ACB0B4F1B4F169
:104A4000A4909C508C2F83CE7B8E7BCF7BCF7BCF53
:104A50007C104B0D328C2A2A7430CEF9B6D74BAC71
:104A600022492A2A3A2A524BB4D3838E526B420AE5
:104A700041EB39CA39AB4A2CC5FAB579422C298A9F
:104A8000318931883188316841A9498861C97A29D9
:104A900092AA9B2BAB8BAB8AABCBB3CCABAC9AE9DA
:104AA00092EA72069B4BA38C71E79AEB8249596795
:104AB00041473988396839684168414751678A8B6D
:104AC0009B0C61C9414739A83988398839884188A0
:104AD0004988728B8B6C8BCD840F4ACB29C929A94D
:104AE00031A9638F7C5173EFD6FAE7BC7CF15B8C04
:104AF0006B8D9471B513CDB4D636EEF9F75AF77BBA
:104B0000F71AEEB8DE76C573A4D1945083CF840F24
:104B100031EA31CA31C93A2A428C2A29747195F591
:104B2000648F22283A6A424B52AC62EC732D83AEFA
:104B30008BCF93EF9C50A491A491ACD19C70940F17
:104B40008BCE8C107BAF5B0D5B0D6BAF5B4E3A4A2F
:104B5000322A94F2B6775BED4AEB52CB632D7B8E13
:104B600093CFACB1BD33C573C5B3BD72BD52B511E2
:104B7000A4B18BEE7BAE736E7BEF8C507C3042CC5D
:104B80002A4B21E97C51D73ABF38436A2269222A4D
:104B900031C9520AC53593EF4A0939C939CA41EBBF
:104BA00041AA9454CE3A7BB139CB39CB398841A74D
:104BB0003986314631274148516869C9824AA34C38
:104BC000AB6BAB8AA38AABCBA32A92C892A96145EF
:104BD0008A897A2771E871E969E969E9494638E61D
:104BE0003927414851A95168516871E98A298AAC2D
:104BF000414739A841A83988418841876A4AD53454
:104C0000E5F39C4D842E4B0B322929A9426B6BF0A6
:104C100063AD6B8DDEFAEFBC8D5263CC844FAD3348
:104C2000BD94CE15E6B8F75BFFBCFFDDFF9CF73AFD
:104C3000E697C5B3AD11946F944F8C2F320A29C9F2
:104C400031C9424B428B2A0984D3AE7764AF328993
:104C5000428B52CC62ED732D838D8BCE9C50A47011
:104C6000ACB1BD33BD53BD53B4F2A4B1942F940F76
:104C700094307BCF6B4D73AF5B6E42AB3A4AA594D9
:104C8000C6D76C6E534C632C736D8BEFA470BD3222
:104C9000CD94D635DE76D635CDF4C572B5129C6F7F
:104CA0007B8D6B2C7BAE8C508C714AEC326B19C7B0
:104CB0007430DF5BC7794BEC22892A6A29C89411CA
:104CC000E638AC916B0C420A422C41EB8BD2DE7C75
:104CD000CE1A8C536B2F5A4C728B830B934C7ACA1F
:104CE0006A4859C761C871E8824992AAA32BA32ACE
:104CF000AB8BA38BA36B92A8824971886967698784
:104D0000618761C8598772288AA97248516641062D
:104D1000618971CA614861478A4A828B414639A8D4
:104D200031883988396749C9938FF71BF737ACAE9B
:104D300094907C0F428B52CD7C116BCF5B6C6B6D72
:104D4000E6FAF7BC9D727C4EAD53AD32B552CE350E
:104D5000EEF9FF9CFFDEFFDEFFDDF75AE6D9D656FF
:104D6000BDB3BDB3A4F18C4F328B2A093A2A3A4B1A
:104D70003A6B2A298CF3BED87D513B0A42AB5B0DBE
:104D80006B0C838E8BEEA491B4D1BD12C594CDF57E
:104D9000D616CDF5CDF5BD73A4909C4F8BEF8C301E
:104DA0007BCF8430636D42CB3228BE36D7397CAF9F
:104DB0005B6C6B8D83AE9430B4F2C594E677EEF9FC
:104DC000F75AEF19E6D7D614BD92AD11942F83EEA2
:104DD0007BCE841094917C30532C4B0C8CD2E79B6F
:104DE000CF9A6CAF330A3AEB32095AABB513BD54C4
:104DF0009451630D318A5A8EEF1EDEDCBDD8C5FAA0
:104E00009CB5526C5A2A6A6A8B2C936D9B8EA3AE0A
:104E1000934C8A8A7A0882498A699AEBA34BA38BBE
:104E2000ABAB9B098A6981E979E871E87A4A8AED36
:104E3000A36EBC2FC48EBC6EABED92EB69867A0874
:104E400071C861458A8A828C416739A83989398954
:104E5000418851A89BCEEEB7DE34ACAF9CB17BEE5F
:104E600073CE8C519491845073AD7BEEE71AF79B0F
:104E7000B5F4ADB3A531E6F9E6D7D676EF19FF7CE8
:104E8000FFDEFFDDFFDCF75AE6D8EF5AFFDBD6B6D0
:104E9000AD52948F432D3A8B322A428C3ACC2A4918
:104EA0009D74CF398592436B534D634D7B6E8BEF71
:104EB0009C50B4D1BD53CDD5DE57E6B8EED9E6D877
:104EC000DE57D615BD73A490940F8C0F94508C515F
:104ED00073EF4ACB3A29C697DF7A95515B6C6B8D9D
:104EE0007B8EA470B532DE36EEF9FF7BFFBCFFBCD3
:104EF000F75AEEB7CDF4B552ACD1944F8C0F8C105D
:104F0000949294D27C714B0C94F2E79ADF9A7CCF06
:104F100053CC4B4C530C424A738DACD383AF632EAE
:104F200041EB9C55E75DD6DB94936B7031893188FA
:104F300039A93147394759C77A8A69C682AA9B0B72
:104F40009ACA79E879C8928AA36CB3EDB3ECABAB9B
:104F5000A32A9AAA928A69C869E87A4A92ECB3EEBF
:104F6000CCAFC48EBC2DBBECAB8A9B0992E992A955
:104F700092EA82AC414639883989398941A9624A25
:104F8000AC6FBD50B530A4909471842F8C4FA51296
:104F9000B5729CD08C4E9470DEFAEF9BCEB7C635BE
:104FA000AD51BD92CE34CE14E6D8F73BFF9CFFBC8A
:104FB000FF9BEF39DEB7EF39F7BAC634A5309CEF67
:104FC0004B8E538E42CC430D4B4E2A8AA595D77AF1
:104FD0009E344B8B536D6B8E83CE93EFA491B4F2C2
:104FE000CDB5E677EEF9F73AF75AF75AEEF9DE77EC
:104FF000CDF4B5129C2F940F945094B17C105B2C7F
:105000004ACAD6F9E7BBA5B26BCC73AD8C0FACD155
:10501000C573DE77F75BFFBCFFFEFFDDFF9BEED8BD
:10502000D614C593B5129C908C0F8C308C5094D1B3
:105030009D537C709532E79AE79A8D306C4D7C2EAB
:105040006BAE634D83CF8BEF6ACC5AAC41EBC5BAE4
:10505000EF3ECE7A7BB041A9398941CA39CA398835
:1050600039674966BC70ABCD61658A8992AA82298D
:1050700079E8928AAB8CBC4EBC2DBC2CB3ABAB6B2D
:105080008A4948E531063106516769A86145824879
:105090009B0BB3ACBC0CB3EBB3CBBC0DB3AD828BF1
:1050A00041263187318931683968834EE6B8FFBAC5
:1050B000CE32A4F094918C509491F75BFFDCDEB675
:1050C0009CEE948FCE97DF38D6B7FFDCF759C5D367
:1050D000B572C5F4DE57E6D9F77BFFBBEF19E6D70B
:1050E000D675C5D3B571BD92E717BDD2432C5BCF42
:1050F0005BAF4B2D4B8E32AAADF6DF9BB6B64B6A3B
:10510000538C636D83CE940FA491BD33DE16EED91C
:10511000F75BFFBCFFDCFFDCF75BEEF9D636C5932F
:10512000A4B0940F8C0E9CD19D136BCE52CADF1A83
:10513000EFDBAE14740C8C6FCE16D614C5B3DE97AD
:10514000F73AFFDCFFFDFFDDFF9BE6D7D635BD72EA
:10515000AD11A4F094909C90946F8C4E9CF1ADD4C2
:10516000BE35E77ADF7A9530950FA5308C6E8C4E80
:10517000C5D48BCD72CC6B0E5AADDE9DE73DBDB76D
:105180006B2E520A49A949CA51EA51C951A86A0865
:105190009B2C9B2B8A898AA99AEA7A0871C7928AE2
:1051A000B3ACBC4EBC2DBC2DC46DB3AA8A68596685
:1051B000494630C469E9AB8F92CB79C78A689AC9EE
:1051C000B3ABBC0BBC0CBC0CABAC930C392639A8F4
:1051D00039484147726A938EF71AFFFBEF58A511C1
:1051E0009CB294919CB1DE98FFDCF779AD91A53229
:1051F000B5D5BE16BDD5EF7AFFDBF779DEB7C5D4DE
:10520000CDF5DE57F75AFFBBEEF8D655CDF4BD937A
:10521000AD32C5D4FFDBE7174B2C538D6C0F640FF9
:105220004B8D3AEABE37E79BC6F7538B5BAC6B8C72
:1052300083CD942FA491BD33DE37F6F9FF7BFFDDDC
:10524000FFDDFFDDFF9BF73ADE97CDB4BD32A490C2
:10525000944E948FA552AD946B8CD71AEFDCBE752B
:105260007C4C94AFB572BD51BD91DE56E6F8FF9B04
:10527000FFBBFFBCEF39DE95CDF3BD71B510A4EFD8
:10528000A510948FC5F3C6138C8DADB3BE56DF5AEF
:10529000D7399D71DF18F7B9CE12DE94F758A48F75
:1052A0007B2C7B4E83B1E6FDE71CAD55732E6A8CDB
:1052B0006A6B59C96A0A7A6A8ACB9B0BA32B9B2B10
:1052C000AB8C9B4A8AC969C771C89ACBB3ACBC0C7A
:1052D000C42DBC2DBC4DBC2CA34A8A897A69722985
:1052E00092CAA36CB3CDABADB38CBBCCBBEBBC0B48
:1052F000BC0CB3CBB3EC8AEB3925398838E592EC9A
:10530000B3CE9B8DCD94CE35BDD4A4F29C929C920D
:105310009CB1AD13C5F5BDD4AD52AD34A5139CD22F
:105320009491A512BD93B572BDB3BD94CDB5D5F61C
:10533000D656D656D635CDD5C594B533B553B53337
:10534000C5F5B5926BEF5BAD742F8CF36C2F432BCF
:10535000BE36EFBBD779538B6BCC7BED83ED9C4F87
:10536000ACB1C554DE36F719FF7BFFDDFFDDFFDD95
:10537000FF9CF739DE77C5D4BD72ACF0A4CF9CAFEB
:1053800094AEB5B3AD73DF3AEFDBC6B58C8D9CEF51
:10539000A4EFAD0EBD70D614E6D8E6F7EF59EF18BE
:1053A000F779EF17CDF3CE14FFBAE716A52FAD317D
:1053B000FFFBFFDAAD4F94D0AD94CE97B65694F183
:1053C000E739F7BACE33CE12EF58A4B0628A628CB6
:1053D0008BB0EF1CE6FBBD76836F7AAC826B8A8A5A
:1053E0008AAB930C9B2BAB4BAB6CAB8DABAC932ACA
:1053F000828861C871E99AABBBACC40DC42DBC2DC9
:10540000BC4CC46DB40CA38B9B6CABCEB3EEBC4E4A
:10541000C46FBC2EC42EBC0DC42CBC0CBBECBBECAE
:10542000B3AC9B2C41463126826BBC0FBC0E93ADB6
:105430009C719C929C92A4929C929C9294719CB21E
:10544000A4B2A4D3A4F49C939C939CB37BCF8C0F65
:105450008C4FAD12AD33BD74C575CDB5CDB4CDD5C2
:10546000C5D5BD74BD74AD33A513AD13A4F29CB105
:105470007C50740E6BEE8C90A5B56C0EBE36EFBBF7
:10548000D759744D846E946F944E9C90ACB1C57492
:10549000D615E697F75AFF9BFFBCFF9CF77BEEF80B
:1054A000D676C5D4BD92B530B551CE34A52E9CEF7D
:1054B000BDF5D6F8E7BAB6339CCEE717F799C5D154
:1054C000B50FDE76FFDCF758E6B6E6D7FFFBEF5800
:1054D000C5D2CE14FF79DED6A510A4F1DE97DEB6D4
:1054E000A50F8C6F94D2AD9484D1742F94B0AD522B
:1054F000A4F1A4B0B53294505A8C41C9732EEEFC7D
:10550000E6FBBD9772CD82ED92CCA32CA36DA38C4C
:10551000AB8CAB6BAB8CA38CA36B8AE96A0759C8C5
:10552000720A9B0CBBCCC3ECC40CC40DBC0CC46D88
:10553000BC2DB3ECABCCB40DBC4EC46EC4AEC48DAC
:10554000BC4DBC4DBC2CC42DBBECBBCCB3ECA36D93
:1055500041054947A32DBC0EA3CC93EE9C729C93AE
:105560009CB39CB39C939CB49CD49CB4A4F4A4F42E
:10557000A4F49C939CB394937BEF7BEF8C30947159
:105580009491A4B2B513BD33BD53BD94BD74BD5445
:10559000B575AD34AD13A4F3A513A4F3ADB48CB0BD
:1055A0007C4E844DA593ADF5C656EF9ADF59848E97
:1055B00094AF946E946EA4AFACF1BD32D5F5E6B75E
:1055C000E6F8EF39FF9CF75BEF19DEB6D655F759D1
:1055D000F79ABDB1DEB6FFFBE736948D94AFC656A1
:1055E000CEF8A571A510EF38FFFBC5B1ACF0C5939F
:1055F000EF19DE96D633D634D655C5F3B551AD1175
:10560000A4D0A4D09CB09CB19C90944F946F8C502B
:105610008410638E63CE534D6BAE8C719CB29492AA
:1056200094518C124A2B4A4B6AEDE67BE6DCB55668
:105630006ACD830D92ECA34CABADABACABACABACD9
:10564000A38BA38B9B2A828959A759E96A09A32CAA
:10565000B3ABBBCBBBCCB3ABBC0CC42DCC6FC44E7B
:10566000BC0CC44DC44EC46EC4AEC4ADB42BC46D2A
:10567000C44DBC2DC40CBBEBABCB9B4D48E569C9FD
:10568000A30CC42EB44D7B4D734E6B4E7BF07BD080
:105690007BF184327BD17BD16B4E73D06BAE73B018
:1056A00073B073F073F073AF736E6B6D738E83EFC3
:1056B0009C71ACD2ACD2AD13B555B535B556B55518
:1056C000AD14AD34AD14A4F4BDD2AD50AD509CEDCD
:1056D00094AEBDF5D6B7E75AEF9ACE94BDF2F79ADD
:1056E000DEF5AD0FA4D0AD12DE76FFFBF799EF1813
:1056F000FFDCFFBBDEB6D654CE13EF58F799BDB131
:10570000CE33EF78CE33948E842D9D12A5948CB039
:105710009CB0A4D0A4D0A4D0ACD0B4F2A4B0B55264
:10572000BD72C593BD53BD33ACF1A4D1A4B19C915E
:1057300094718C7194918C718C5184107C107410C4
:10574000536E3AAB532D6BB06BAF6BAF73B09453DA
:1057500049CAAD1662CDC5F9D67AAD157B2E82EC5D
:10576000930CAB6CA38CAB8CABACAB8CABAB9B6A34
:105770009B0B6A085188494769C89AEBAB8BBBCB36
:10578000BBCBBBCBBBECC42DCC8EC48EC46DC46D67
:10579000BC6DC46EC48EC48EC48DC46EC46EBC2D6C
:1057A000BBECB3ABB3CC828A59468A8AC40FCC8F88
:1057B000934B28E52147214829A829A82988214772
:1057C000216721682188218729A8218829A829C93A
:1057D00029C93A2A4A6B8C717C0F5AEB62EC6B2C0C
:1057E000732D6B2E6B2D634D6B8E632D5AEC632DD9
:1057F000632D6B8FEF58E6D6FFDAE7359CEE94AF5A
:10580000BE14DED8FFDBF7B8D674FFDAEF36AD0F83
:10581000A4D0ACF1C5D4E6F7DE95DE76E6F8E6B7BF
:10582000D634C5D3BD51BD72BD51A4CF9CAF9C8FA2
:10583000946F8C4E7BEE73EF6B8E636D73AE8C2F1B
:10584000947094709C70A491A4B1A4D1ACF2AD12E8
:10585000ACF2A4B19C919C7194518C308430841032
:1058600084107BF07BF073D0636E6BAF5B6E3AABF2
:105870003AAB426B3A4B320A29A87B90BD78C5B946
:10588000524BB557C5D8ACF4730C82EC92ECAB6DAF
:10589000AB8CABACB3ACB3ABA36AA36A92EA59C707
:1058A000418749A869C89ACAAB6BBBCCBBCBBBEBE1
:1058B000BBEBBC2CC48ECCAEC48EC48EBC6DC48E6F
:1058C000C48EC48EC48EC46EC44DC42DBC0CB3AA89
:1058D000B3ED61A76146B3CECC6FCCB06A2741C9A6
:1058E00031A929A931C931C929A931A929A931C9A0
:1058F00031EA31EA29E931EA29C931EA29E93A2BC1
:105900003A0A634D5B0C426A528B528B528B528C1B
:105910004A4B42293A2A31C831A831C831A829A8AE
:10592000FF9AE6F8FFDADEF694EF7C0D94F0AD9383
:10593000AD92B5B1A4EEA4EFA4CE9C6E9C2F9C704A
:10594000ACD1B511BD72CDB3CDB4CDB4C5B3BD52DC
:10595000B4D1ACB1A4909C70942F8C2F7BEF7BEFD3
:105960006B8E638E636E5B2D634D6BAE84307BEF0D
:1059700083CF8BEF8BCF9430942F9C719471840FD5
:1059800084307BCF7BAF7BCE7BEF7BCE7BAE7B8EC1
:10599000630D428B4AAB4AAC428C3A6B3A6B3A0A83
:1059A000320A29C921686B2FBD589CB549EAACD68B
:1059B000BD56ACF4730C82AC92CCA32CA38CAB8BF5
:1059C000AB8AB3ABA34AA36B6A484166398749C81F
:1059D00061E89ACBAB2BBBCCB3CBBBEBBBEBBC2C0A
:1059E000C46DCC8ECC8EC46EBC4DC46DC48EC48EC2
:1059F000CC8EC46EC44DC44DBC0CB3CBABCD48E40F
:105A000071E8B3CDCC6FBC6F51E74A2A39C931C9AF
:105A100031A939EA31C939EA31CA31EA31EA3A0AF7
:105A200031EA3A0A3A0A3A0B424C3A0B4A8D426B37
:105A30004A8B4A8C426B422A422A39EA41EA31A90E
:105A4000318831A931A931A9298931A9AD319CAF5A
:105A50008C6E846D742D63AD63AD638D5B4B638B16
:105A60007C2E7BEE8C0D8BEE942F9410A470AC905A
:105A7000B511BD12BD53B4F2ACD1ACD1A4909C50C1
:105A8000942F8BEF7BAE7BCF73AF634E5B2D532D8B
:105A9000532C42CB4AEC4A8B52CC52CB5AEC6B0C77
:105AA000732D6B0C734D734D73AE5B2C530C5B4DB0
:105AB0006B8E73AD7BED9C709C0F730B4A893A69BA
:105AC000324A3A4B31EA320A320A39EA29C929C93B
:105AD00021885ACE9454735031288350CDB8ACF4F9
